S015000052656E646572446973706C61792E73726563D9
S11300000C942A000C9447000C9447000C9447006D
S11300100C9447000C9447000C9447000C94470040
S11300200C9447000C9447000C9447000C94470030
S11300300C9447000C9447000C9447000C94470020
S11300400C9447000C9447000C9447000C94470010
S11300500C94470011241FBECFE5D8E0DEBFCDBF0E
S113006014E0A0E6B0E0EAEEF9E002C005900D92DB
S1130070AC37B107D9F725E0ACE7B4E001C01D9275
S1130080A838B207E1F70E94CD030C94F3040C9452
S11300900000FC010FB6F894609184057091850509
S11300A080918605909187050FBE309721F060837B
S11300B0718382839383089585B3806C85BB08958F
S11300C08FEF8ABB8FEC84BB85B3806C85BB0895AE
S11300D087B38C7F87BB0895BA9A089595B3907FB0
S11300E095BB95B38F70982B95BB0895AE989BB331
S11300F0907F9BBB9BB38F70982B9BBB0895AF984D
S11301009BB39F709BBB2BB330E1839FC001112431
S1130110822B8BBB0895A0E0B0E010C0FB01E80F78
S1130120F91F2081FA01E80FF91F2083019680311D
S11301309105A1F71196A031B10579F080E090E026
S1130140AD0142955295507F5427407F5427BA0100
S113015064597C4F44585B4FE1CF80916A00909181
S11301606B004091680050916900FA0131969C013E
S113017022953295307F3227207F322724573B4FF8
S1130180D901AE0FBF1F60E56C9382959295907F65
S11301909827807F982784589B4FE80FF91F608326
S11301A0F901E40FF51F6083FC01E40FF51F608380
S11301B080916600909167004091640050916500C1
S11301C0FA0131969C0122953295307F3227207FA7
S11301D0322724573B4FD901AE0FBF1F61E36C9305
S11301E082959295907F9827807F982784589B4F7B
S11301F0E80FF91F6083F901E40FF51F6083FC0128
S1130200E40FF51F60830895EF92FF920F931F93FD
S1130210CF93DF93E12CF12C8E2D0E946E00C0E071
S1130220D0E0870102951295107F1027007F1027D8
S113023004581B4FF801EC0FFD1F80818E3209F426
S11302404BC0F801EC0FFD1F8081833221F48C2F09
S11302500E9476003BC0F801EC0FFD1F80818133C2
S113026021F48C2F0E947F0031C0F801EC0FFD1F98
S11302708081803539F48C2F0E947F008C2F0E945E
S1130280760024C0F801EC0FFD1F80818634F1F460
S113029080917E0590917F0501968F7790789923C0
S11302A024F4019780689F6F019690937F05809353
S11302B07E0580917E0590917F058034910564F0E0
S11302C08C2F0E947F008C2F0E94760082E48A95F6
S11302D0F1F700C00E945C002196C031D10509F0FD
S11302E0A9CF8FEFE81AF80A80E1E816F10409F0C3
S11302F093CFDF91CF911F910F91FF90EF900895CD
S1130300CF92DF92EF92FF920F931F93CF93DF93DD
S1130310EC0102967B01E2E0EE0EF11C8A010E5F15
S11303201F4F6901EFEFCE1ADE0A15C03196E017B0
S1130330F10739F0EC17FD07C9F72A173B07B1F4A9
S11303400CC01196EA16FB0611F0FA01F3CF2196C0
S11303508C179D0729F0DB01F8CF81E090E00AC0FB
S113036080E090E007C081E090E004C0AC15BD05DA
S1130370E9F6F9CFDF91CF911F910F91FF90EF90A4
S1130380DF90CF900895CF92DF92EF92FF920F9378
S11303901F93CF93DF93A0916A00B0916B00880FF5
S11303A0991FFC01EC58FB4FC081D181CA0FDB1FA0
S11303B06091680070916900FC01E459FB4FC080B2
S11303C0D180C60ED71EFE01E295F295F07FFE277E
S11303D0E07FFE27E459FC4FEC0DFD1D8081833244
S11303E009F4F0C08E010F5F1F4FF801E295F295FA
S11303F0F07FFE27E07FFE27E459FC4FEC0DFD1D46
S11304008081833209F4DEC076018FEFE81AF80A9E
S1130410FE01E295F295F07FFE27E07FFE27E45986
S1130420FC4FEE0DFF1D8081833209F4CBC0F8012F
S1130430E295F295F07FFE27E07FFE27E459FC4F1A
S1130440EE0DFF1D8081833209F4BCC0209164004D
S1130450309165004091660050916700CD010E9483
S11304608001892B39F081E090E090937D058093A1
S11304707C05A8C0D0936B00C0936A00D092690039
S1130480C0926800FE01E295F295F07FFE27E07FBE
S1130490FE27E459FC4FEC0DFD1D8081863451F19B
S11304A0FE01E295F295F07FFE27E07FFE27E459F6
S11304B0FC4FEE0DFF1D80818634E1F0F801E295DA
S11304C0F295F07FFE27E07FFE27E459FC4FEC0D08
S11304D0FD1D8081863471F0F801E295F295F07F7C
S11304E0FE27E07FFE27E459FC4FEE0DFF1D8081BF
S11304F0863431F485E090E09093830580938205FF
S1130500FE01E295F295F07FFE27E07FFE27E45995
S1130510FC4FEC0DFD1D8081863469F4FE01E295EB
S1130520F295F07FFE27E07FFE27E459FC4FEC0DA7
S1130530FD1D8EE28083F801E295F295F07FFE279F
S1130540E07FFE27E459FC4FEC0DFD1D80818634CD
S113055071F4C80182959295907F9827807F98279F
S113056084599C4FFC01EC0DFD1D8EE28083FE013D
S1130570E295F295F07FFE27E07FFE27E459FC4FD9
S1130580EE0DFF1D8081863411F48EE28083F80124
S1130590E295F295F07FFE27E07FFE27E459FC4FB9
S11305A0EE0DFF1D8081863469F402951295107F4B
S11305B01027007F102704591C4FF801EE0DFF1D72
S11305C08EE28083DF91CF911F910F91FF90EF9086
S11305D0DF90CF900895809182059091830518163D
S11305E0190614F4C29A01C0C298809182059091B0
S11305F08305892B49F080918205909183050197A9
S113060090938305809382050895EF92FF920F9350
S11306101F93CF93DF930F2EFCE6EF2EF0E0FF2E17
S1130620F02DD0E08D2F0E946E008701C0E0F8010C
S113063081918F018E3259F0833219F48C2F0E94EC
S11306407600F2E4FA95F1F700C00E945C00CF5FF7
S1130650C03169F7DF5F80E1E80EF11CD03111F79A
S1130660DF91CF911F910F91FF90EF900895EF923A
S1130670FF920F931F93CF93DF930F2EFCE6EF2E81
S1130680F2E0FF2EF02DD0E08D2F0E946E00870146
S1130690C0E0F80181918F018E3259F0833219F450
S11306A08C2F0E947600F2E4FA95F1F700C00E94C4
S11306B05C00CF5FC03169F7DF5F80E1E80EF11CB9
S11306C0D03111F7DF91CF911F910F91FF90EF90EF
S11306D00895EF92FF920F931F93CF93DF930F2E02
S11306E0FCE6EF2EF1E0FF2EF02DD0E08D2F0E94DE
S11306F06E008701C0E0F80181918F018E3259F0BC
S1130700833219F48C2F0E947600F2E4FA95F1F703
S113071000C00E945C00CF5FC03169F7DF5F80E1F9
S1130720E80EF11CD03111F7DF91CF911F910F9199
S1130730FF90EF90089560E070E01AC081E090E0CF
S1130740AB0142955295507F5427407F542744591A
S11307505C4FFA01E80FF91F20812634C1F001969D
S113076080319105B1F76F5F7F4F6031710591F072
S1130770FB01E295F295F07FFE27E07FFE27E45926
S1130780FC4F80818634D1F681E090E0089581E0C9
S113079090E0089580E090E008950F931F93CF9325
S11307A0DF9384B7806884BF84B7806884BF0E9465
S11307B060000E9468000E946C0080E090E00E944B
S11307C04900CB010E948504C8ECD0E00E940503D7
S11307D02197E1F701E010E086B3837090E00E9476
S11307E0C3010E948B00CCE0D0E00E9404010E946F
S11307F0EB022197D1F70E949B03892B21F41093DC
S113080081050093800580917C0590917D05892B5D
S113081039F080917C0590917D05892B41F40FC0BE
S11308208091800590918105892BB1F2F2CF0E94CD
S1130830370380917C0590917D05892BC1F78091C8
S1130840800590918105892B41F00E946903809174
S1130850800590918105892BC1F780E090E0DF91BC
S1130860CF911F910F9108958F929F92AF92BF9253
S1130870CF92DF92EF92FF92CF93DF93EC016881E6
S113088079818A819B81611571058105910521F426
S113089064E279ED8BE597E02DE133EF41E050E040
S11308A00E94900449015A019B01AC01A7EAB1E4FA
S11308B00E94AF046B017C01ACEEB4EFA50194017E
S11308C00E94BD04DC01CB018C0D9D1DAE1DBF1D1E
S11308D0B7FF03C00197A109B04888839983AA830D
S11308E0BB839F77DF91CF91FF90EF90DF90CF9004
S11308F0BF90AF909F908F9008950E943404089504
S113090080E690E00E9434040895A0E0B0E0809373
S1130910600090936100A0936200B0936300089517
S1130920052E97FB1EF400940E94A70457FD07D0E0
S11309300E94C20407FC03D04EF40C94A704509503
S11309404095309521953F4F4F4F5F4F08959095B7
S11309508095709561957F4F8F4F9F4F08950E94AA
S1130960E404A59F900DB49F900DA49F800D911D4C
S113097011240895B7FF0C94AF040E94AF04821BA6
S1130980930B0895A1E21A2EAA1BBB1BFD010DC0F7
S1130990AA1FBB1FEE1FFF1FA217B307E407F5072B
S11309A020F0A21BB30BE40BF50B661F771F881F07
S11309B0991F1A9469F760957095809590959B019D
S11309C0AC01BD01CF010895A29FB001B39FC00146
S11309D0A39F700D811D1124911DB29F700D811D67
S10D09E01124911D0895F894FFCF2F
S11309EA0100000005000D0008000D002E2323233A
S11309FA232E232323232E232323232E2E232E2E77
S1130A0A232E232E2E232E232E2E2E2E2E23232345
S1130A1A232E232323232E232E2E2E2E2E232E2E35
S1130A2A2E2E232E2E232E232E2E2E2E2E232E2E04
S1130A3A2E2E232E2E232E232323232E2E2E2E2E0A
S1130A4A2E2E2E2E2E2E2E2E2E2E2E2E2E232323D9
S1130A5A232E232323232E232323232E2E232E2E16
S1130A6A232E232E2E232E232E2E2E2E2E232323E5
S1130A7A232E232323232E232E2E2E2E2E232E2ED5
S1130A8A2E2E232E2E232E232E2E2E2E2E232E2EA4
S1130A9A2E2E232E2E232E232323232E2E2E2E2EAA
S1130AAA2E2E2E2E2E2E2E2E2E2E2E2E2E232E2E63
S1130ABA232E232323232E232E2E232E2E232323B6
S1130ACA232E232E2E232E23232E232E2E232E2E85
S1130ADA232E232323232E232E23232E2E232E2E8B
S1130AEA232E232E2E232E232E2E232E232323237B
S1130AFA2323232323232323232323232E2E2E2E8C
S1130B0A2E2E2E2E2E2E2E2E2E2E2E2E2E232E2E02
S1130B1A232E232323232E232E2E232E2E232E2E3F
S1130B2A232E232E2E232E232E2E232E2E2323232F
S1130B3A232E232E2E232E232E2E232E2E2E232314
S1130B4A2E2E232E2E232E232E2E232E2E2E2323F9
S1130B5A2E2E232323232E232323232E2E2E2E2EFF
S1130B6A2E2E2E2E2E2E2E2E2E2E2E2E2E2E2E2E97
S1130B7A2E2E2E2E2E2E2E2E2E2E2E2E2E232E2E92
S1130B8A232E2323232E232E2E2E232E2E232E2EC4
S1130B9A232E2E232E2E23232E2E232E2E232E2EA9
S1130BAA232E2E232E2E232E232E232E2E232323AF
S1130BBA232E2E232E2E232E2E23232E2E232E2E89
S1130BCA232E2323232E232E2E2E232E2E2E2E2E79
S1130BDA2E2E2E2E2E2E2E2E2E2E2E2E2323232353
S1130BEA23232323232323232323232323232323C7
S1130BFA2323232323232323232323232E2E2E2E8B
S1130C0A2E2E2E2E2E2E2E2E2E2E2E2E2323232E17
S1130C1A2323232E232E232E2323232E232E2E2E49
S1130C2A232E232E2323232E232E2E2E232E232E2E
S1130C3A2323232E232E232E2323232E232E232E34
S1130C4A232E232E232E232E232E2E2E2323232E0E
S1130C5A232E232E232E232E2323232E2E2E2E2EF3
S1130C6A2E2E2E2E2E2E2E2E2E2E2E2E2E2E2E2E96
S1130C7A2E2E2E2E2E2E2E2E2E2E2E2E2323232EA7
S1130C8A232E232E2323232E2323232E232E232EE4
S1130C9A232E232E232E2E2E232E232E232E232EB3
S1130CAA232E232E2323232E2323232E232E232EC4
S1130CBA232E232E232E2E2E23232E2E2323232E9E
S1130CCA2323232E2323232E232E232E2E2E2E2E8E
S1130CDA2E2E2E2E2E2E2E2E2E2E2E2E2323232352
S1130CEA23232323232323232323232323232323C6
S1130CFA232323232323232323232323232E462E7D
S1130D0A2E2E2E2E2E2E2E2E2E2E2E23232E2E2E0B
S1130D1A2E462E2E2E2E2E2E462E2E23232E2E23D6
S1130D2A2E2E23232323232E2E232323232E2E2343
S1130D3A2E2E2E2E2E2E232E2E2E2E23232E2E23F1
S1130D4A2E462E2E2E2E232E462E2E2323462E2399
S1130D5A232323232E2E2323232E2E23232E2E2E08
S1130D6A2E2E2E2E462E2E2E2E2E2E23232E2E2E93
S1130D7A2E2E2E2E2E2E2E2E2E2E2E23232E462E83
S1130D8A2E2E23462E232323232E2E23232E2E2EAA
S1130D9A2E2E232E2E2E2E2E2E462E23232E2E2379
S1130DAA2E46232E2E2E2E2E2E2E2E23232E2E2369
S1130DBA2E2E2323232E4623232E2E23232E462E62
S1130DCA2E2E2E232E2E2E2E2E462E23232E2E2E3E
S1130DDA2E2E2E232E2E2E2E2E2E2E232323232367
S1130DEA2323232323232323232323230000010050
S10F0DFA0000FFFFFFFF000001000000EC
S9030000FC
