S015000052656E646572446973706C61792E73726563D9
S11300000C942A000C9447000C9447000C9447006D
S11300100C9447000C9447000C9447000C94470040
S11300200C9447000C9447000C9447000C94470030
S11300300C9447000C9447000C9447000C94470020
S11300400C9447000C9447000C9447000C94470010
S11300500C94470011241FBECFE5D8E0DEBFCDBF0E
S113006014E0A0E6B0E0E6EBFDE002C005900D92DE
S1130070AC37B107D9F727E0ACE7B4E001C01D9273
S1130080AE30B207E1F70E94A6050C94D9060C9491
S11300900000FC010FB6F89460910A0770910B07F9
S11300A080910C0790910D070FBE309721F060836B
S11300B0718382839383089585B3806C85BB08958F
S11300C08FEF8ABB8FEC84BB85B3806C85BB0895AE
S11300D087B38C7F87BB0895BA9A089595B3907FB0
S11300E095BB95B38F70982B95BB0895AE989BB331
S11300F0907F9BBB9BB38F70982B9BBB0895AF984D
S11301009BB39F709BBB2BB330E1839FC001112431
S1130110822B8BBB0895A0E0B0E010C0FB01E80F78
S1130120F91F2081FA01E80FF91F2083019680311D
S11301309105A1F71196A031B10579F080E090E026
S1130140AD0142955295507F5427407F5427BA0100
S113015064597C4F44585B4FE1CF80916A00909181
S11301606B004091680050916900FA0131969C013E
S113017022953295307F3227207F322724573B4FF8
S1130180D901AE0FBF1F60E56C9382959295907F65
S11301909827807F982784589B4FE80FF91F608326
S11301A0F901E40FF51F6083FC01E40FF51F608380
S11301B080916600909167004091640050916500C1
S11301C0FA0131969C0122953295307F3227207FA7
S11301D0322724573B4FD901AE0FBF1F61E36C9305
S11301E082959295907F9827807F982784589B4F7B
S11301F0E80FF91F6083F901E40FF51F6083FC0128
S1130200E40FF51F60830895EF92FF920F931F93FD
S1130210CF93DF93E12CF12C8E2D0E946E00C0E071
S1130220D0E0870102951295107F1027007F1027D8
S113023004581B4FF801EC0FFD1F80818E3209F426
S11302404BC0F801EC0FFD1F8081833221F48C2F09
S11302500E9476003BC0F801EC0FFD1F80818133C2
S113026021F48C2F0E947F0031C0F801EC0FFD1F98
S11302708081803539F48C2F0E947F008C2F0E945E
S1130280760024C0F801EC0FFD1F80818634F1F460
S1130290809180059091810501968F7790789923BC
S11302A024F4019780689F6F019690938105809351
S11302B0800580918005909181058034910564F0DA
S11302C08C2F0E947F008C2F0E94760082E48A95F6
S11302D0F1F700C00E945C002196C031D10509F0FD
S11302E0A9CF8FEFE81AF80A80E1E816F10409F0C3
S11302F093CFDF91CF911F910F91FF90EF900895CD
S1130300CF92DF92EF92FF920F931F93CF93DF93DD
S1130310EC0102967B01E2E0EE0EF11C8A010E5F15
S11303201F4F6901EFEFCE1ADE0A15C03196E017B0
S1130330F10739F0EC17FD07C9F72A173B07B1F4A9
S11303400CC01196EA16FB0611F0FA01F3CF2196C0
S11303508C179D0729F0DB01F8CF81E090E00AC0FB
S113036080E090E007C081E090E004C0AC15BD05DA
S1130370E9F6F9CFDF91CF911F910F91FF90EF90A4
S1130380DF90CF900895CF92DF92EF92FF920F9378
S11303901F93CF93DF93A0916A00B0916B00880FF5
S11303A0991FFC01EC58FB4FC081D181CA0FDB1FA0
S11303B06091680070916900FC01E459FB4FC080B2
S11303C0D180C60ED71EFE01E295F295F07FFE277E
S11303D0E07FFE27E459FC4FEC0DFD1D8081833244
S11303E009F4FBC08E010F5F1F4FF801E295F295EF
S11303F0F07FFE27E07FFE27E459FC4FEC0DFD1D46
S11304008081833209F4E9C076018FEFE81AF80A93
S1130410FE01E295F295F07FFE27E07FFE27E45986
S1130420FC4FEE0DFF1D8081833209F4D6C0F80124
S1130430E295F295F07FFE27E07FFE27E459FC4F1A
S1130440EE0DFF1D8081833209F4C7C02091640042
S1130450309165004091660050916700CD010E9483
S11304608001892B39F081E090E090937F0580939F
S11304707E05B3C0D0936B00C0936A00D09269002C
S1130480C0926800FE01E295F295F07FFE27E07FBE
S1130490FE27E459FC4FEC0DFD1D8081863451F19B
S11304A0FE01E295F295F07FFE27E07FFE27E459F6
S11304B0FC4FEE0DFF1D80818634E1F0F801E295DA
S11304C0F295F07FFE27E07FFE27E459FC4FEC0D08
S11304D0FD1D8081863471F0F801E295F295F07F7C
S11304E0FE27E07FFE27E459FC4FEE0DFF1D8081BF
S11304F0863459F485E090E09093870580938605CF
S1130500109289051092880506C081E090E09093CE
S1130510890580938805FE01E295F295F07FFE2718
S1130520E07FFE27E459FC4FEC0DFD1D80818634ED
S113053069F4FE01E295F295F07FFE27E07FFE2745
S1130540E459FC4FEC0DFD1D8EE28083F801E29529
S1130550F295F07FFE27E07FFE27E459FC4FEC0D77
S1130560FD1D8081863471F4C80182959295907F37
S11305709827807F982784599C4FFC01EC0DFD1D22
S11305808EE28083FE01E295F295F07FFE27E07F04
S1130590FE27E459FC4FEE0DFF1D8081863411F4D3
S11305A08EE28083F801E295F295F07FFE27E07FEA
S11305B0FE27E459FC4FEE0DFF1D8081863469F45B
S11305C002951295107F1027007F102704591C4FA5
S11305D0F801EE0DFF1D8EE28083DF91CF911F9114
S11305E00F91FF90EF90DF90CF9008959C01220F20
S11305F0331FF901EA59FF4F660F771FDB01AC582F
S1130600BB4F0190F081E02D4D915C914E0F5F1F27
S1130610F901EC59FF4FDB01A459BB4F0190F08164
S1130620E02D2D913C912E0F3F1FFA01E295F2959A
S1130630F07FFE27E07FFE27E459FC4FE20FF31F13
S11306406081633209F44CC0BA016F5F7F4FFB01D4
S1130650E295F295F07FFE27E07FFE27E459FC4FF8
S1130660E20FF31FE081E332D9F1D9011196FA01C7
S1130670E295F295F07FFE27E07FFE27E459FC4FD8
S1130680EA0FFB1FE081E33259F162957295707FA6
S11306907627607F762764597C4FA60FB71F6C912D
S11306A06332F1F0880F991FFC01EA59FF4F51831F
S11306B04083FC01EC59FF4F318320836091680033
S11306C07091690080916A0090916B000E94800192
S11306D0892B31F081E090E090937F0580937E0533
S11306E008952F923F924F925F926F927F928F92D2
S11306F09F92AF92BF92CF92DF92EF92FF920F93AD
S11307001F93CF93DF93CDB7DEB72B970FB6F89433
S1130710DEBF0FBECDBF9E838D83EAE8F5E04AE8D5
S113072056E02FEF08C02193E817F907E1F7FC0121
S11307304817590719F0CF014096F5CF20916A0068
S113074030916B00809168009091690022953295F8
S1130750307F3227207F3227F901E657FA4FE80F1E
S1130760F91F108210927D0510927C0541E050E043
S11307705093850540938405822B80938A060F2E1F
S1130780FAE88F2EF6E09F2EF02D22242394312CAC
S113079081E090E09C012A58364039010F2EFCE795
S11307A0AF2EF4E0BF2EF02D2301480C591CD401C8
S11307B08D914D01082F10E0159507951595079516
S11307C015950795159507958F70E82EF12CE4E79C
S11307D0F4E0FA83E9832CE634E03C832B83C801FC
S11307E082959295907F9827807F982786579A4F75
S11307F06C01CE0CDF1C3B872A8721913191200F9D
S1130800311FAA85BB858D919D91BB87AA878E0DCB
S11308109F1DB90162957295707F7627607F762758
S113082066577A4F680F791FDB014C914F3F09F0EF
S11308305CC0B90162957295707F7627607F7627D8
S113084064597C4F680F791FDB014C91433209F4E2
S11308504CC0A9014F5F5F4FDA01A295B295B07FFA
S1130860BA27A07FBA27A459BC4FBD01680F791FCE
S1130870DB016C916332C9F1BC016F5F7F4FD90119
S1130880A295B295B07FBA27A07FBA27A459BC4FCE
S1130890A60FB71FBC91B33241F142955295507FD8
S11308A05427407F542744595C4F460F571FDA01A1
S11308B04C914332D1F022953295307F3227207FFC
S11308C03227B90166577A4F680F791FD6019C9178
S11308D09F5FDB019C93B1016657794F822BDB014B
S11308E08C9391012F5F3F4F1901EA15FB0509F025
S11308F084CF421453040CF457CF309285052092D0
S1130900840550927D0540927C058D819E81880FDF
S1130910991FFC01EA59FF4F408151815E834D8349
S1130920FC01EC59FF4FA081B18140E050E080E030
S113093090E06FEF70E009811A81EB80FC80CD803C
S1130940DE805D01D8012D913D918D01D701ED919E
S1130950FD917D012C0D3D1D22953295307F32276E
S1130960207F322726573A4F2A0D3B1DE20FF31FF3
S1130970208130E0261737071CF4842F952FB90106
S11309804F5F5F4F44305105E9F62B960FB6F8944C
S1130990DEBF0FBECDBFDF91CF911F910F91FF90AE
S11309A0EF90DF90CF90BF90AF909F908F907F900B
S11309B06F905F904F903F902F900895EF92FF9229
S11309C00F931F93CF93DF930F2EFCE6EF2EF0E0EF
S11309D0FF2EF02DD0E08D2F0E946E008701C0E025
S11309E0F80181918F018E3259F0833219F48C2FE2
S11309F00E947600F2E4FA95F1F700C00E945C00D0
S1130A00CF5FC03169F7DF5F80E1E80EF11CD031C0
S1130A1011F7DF91CF911F910F91FF90EF900895FF
S1130A20EF92FF920F931F93CF93DF930F2EFCE669
S1130A30EF2EF2E0FF2EF02DD0E08D2F0E946E00FD
S1130A408701C0E0F80181918F018E3259F0833221
S1130A5019F48C2F0E947600F2E4FA95F1F700C0A5
S1130A600E945C00CF5FC03169F7DF5F80E1E80E70
S1130A70F11CD03111F7DF91CF911F910F91FF90AD
S1130A80EF900895EF92FF920F931F93CF93DF930C
S1130A900F2EFCE6EF2EF1E0FF2EF02DD0E08D2F8F
S1130AA00E946E008701C0E0F80181918F018E32AF
S1130AB059F0833219F48C2F0E947600F2E4FA95EF
S1130AC0F1F700C00E945C00CF5FC03169F7DF5FBF
S1130AD080E1E80EF11CD03111F7DF91CF911F9125
S1130AE00F91FF90EF90089560E070E01AC081E0EC
S1130AF090E0AB0142955295507F5427407F542794
S1130B0044595C4FFA01E80FF91F20812634C1F0E3
S1130B10019680319105B1F76F5F7F4F60317105A8
S1130B2091F0FB01E295F295F07FFE27E07FFE272E
S1130B30E459FC4F80818634D1F681E090E0089539
S1130B4081E090E0089580E090E008950F931F9372
S1130B50CF93DF9384B7806884BF84B7806884BFF1
S1130B600E9460000E9468000E946C0080E090E097
S1130B700E944900CB010E946B06C6E9D0E00E94A6
S1130B80DE042197E1F701E010E086B3837090E082
S1130B900E94C3018091880590918905892B49F0B1
S1130BA080E090E00E947103BC0180E090E00E942C
S1130BB0F6020E948B00CFE0D0E00E94040121974E
S1130BC0E1F70E947405892B21F4109383050093A7
S1130BD0820580917E0590917F05892B39F0809163
S1130BE07E0590917F05892B41F40FC08091820589
S1130BF090918305892B49F2F2CF0E9410058091D0
S1130C007E0590917F05892BC1F780918205909193
S1130C108305892B41F00E944205809182059091C1
S1130C208305892BC1F780E090E0DF91CF911F917C
S1130C300F9108958F929F92AF92BF92CF92DF92BD
S1130C40EF92FF92CF93DF93EC01688179818A81DF
S1130C509B81611571058105910521F464E279EDAB
S1130C608BE597E02DE133EF41E050E00E947606FA
S1130C7049015A019B01AC01A7EAB1E40E9495061F
S1130C806B017C01ACEEB4EFA50194010E94A306B4
S1130C90DC01CB018C0D9D1DAE1DBF1DB7FF03C034
S1130CA00197A109B04888839983AA83BB839F775E
S1130CB0DF91CF91FF90EF90DF90CF90BF90AF90F6
S1130CC09F908F9008950E941A06089580E690E000
S1130CD00E941A060895A0E0B0E08093600090930B
S1130CE06100A0936200B09363000895052E97FB02
S1130CF01EF400940E948D0657FD07D00E94A8069A
S1130D0007FC03D04EF40C948D0650954095309515
S1130D1021953F4F4F4F5F4F089590958095709563
S1130D2061957F4F8F4F9F4F08950E94CA06A59FDC
S1130D30900DB49F900DA49F800D911D11240895D2
S1130D40B7FF0C9495060E949506821B930B089599
S1130D50A1E21A2EAA1BBB1BFD010DC0AA1FBB1FBB
S1130D60EE1FFF1FA217B307E407F50720F0A21B2D
S1130D70B30BE40BF50B661F771F881F991F1A949A
S1130D8069F760957095809590959B01AC01BD01C4
S1130D90CF010895A29FB001B39FC001A39F700D1E
S1130DA0811D1124911DB29F700D811D1124911D6F
S1090DB00895F894FFCF42
S1130DB60100000005000D0008000D002E2323236A
S1130DC6232E232323232E232323232E2E232E2EA7
S1130DD6232E232E2E232E232E2E2E2E2E23232376
S1130DE6232E232323232E232E2E2E2E2E232E2E66
S1130DF62E2E232E2E232E232E2E2E2E2E232E2E35
S1130E062E2E232E2E232E232323232E2E2E2E2E3A
S1130E162E2E2E2E2E2E2E2E2E2E2E2E2E23232309
S1130E26232E232323232E232323232E2E232E2E46
S1130E36232E232E2E232E232E2E2E2E2E23232315
S1130E46232E232323232E232E2E2E2E2E232E2E05
S1130E562E2E232E2E232E232E2E2E2E2E232E2ED4
S1130E662E2E232E2E232E232323232E2E2E2E2EDA
S1130E762E2E2E2E2E2E2E2E2E2E2E2E2E232E2E93
S1130E86232E232323232E232E2E232E2E232323E6
S1130E96232E232E2E232E23232E232E2E232E2EB5
S1130EA6232E232323232E232E23232E2E232E2EBB
S1130EB6232E232E2E232E232E2E232E23232323AB
S1130EC62323232323232323232323232E2E2E2EBC
S1130ED62E2E2E2E2E2E2E2E2E2E2E2E2E232E2E33
S1130EE6232E232323232E232E2E232E2E232E2E70
S1130EF6232E232E2E232E232E2E232E2E23232360
S1130F06232E232E2E232E232E2E232E2E2E232344
S1130F162E2E232E2E232E232E2E232E2E2E232329
S1130F262E2E232323232E232323232E2E2E2E2E2F
S1130F362E2E2E2E2E2E2E2E2E2E2E2E2E2E2E2EC7
S1130F462E2E2E2E2E2E2E2E2E2E2E2E2E232E2EC2
S1130F56232E2323232E232E2E2E232E2E232E2EF4
S1130F66232E2E232E2E23232E2E232E2E232E2ED9
S1130F76232E2E232E2E232E232E232E2E232323DF
S1130F86232E2E232E2E232E2E23232E2E232E2EB9
S1130F96232E2323232E232E2E2E232E2E2E2E2EA9
S1130FA62E2E2E2E2E2E2E2E2E2E2E2E2323232383
S1130FB623232323232323232323232323232323F7
S1130FC62323232323232323232323232E2E2E2EBB
S1130FD62E2E2E2E2E2E2E2E2E2E2E2E2323232E48
S1130FE62323232E232E232E2323232E232E2E2E7A
S1130FF6232E232E2323232E232E2E2E232E232E5F
S11310062323232E232E232E2323232E232E232E64
S1131016232E232E232E232E232E2E2E2323232E3E
S1131026232E232E232E232E2323232E2E2E2E2E23
S11310362E2E2E2E2E2E2E2E2E2E2E2E2E2E2E2EC6
S11310462E2E2E2E2E2E2E2E2E2E2E2E2323232ED7
S1131056232E232E2323232E2323232E232E232E14
S1131066232E232E232E2E2E232E232E232E232EE3
S1131076232E232E2323232E2323232E232E232EF4
S1131086232E232E232E2E2E23232E2E2323232ECE
S11310962323232E2323232E232E232E2E2E2E2EBE
S11310A62E2E2E2E2E2E2E2E2E2E2E2E2323232382
S11310B623232323232323232323232323232323F6
S11310C6232323232323232323232323232E462EAD
S11310D62E2E2E2E2E2E2E2E2E2E2E23232E2E2E3C
S11310E62E462E2E2E2E2E2E2E462E23232E2E2307
S11310F62E2E23232323232E2E232323232E2E2374
S11311062E2E2E2E2E2E232E2E2E2E23232E2E2321
S11311162E462E2E2E2E232E462E2E2323462E23C9
S1131126232323232E2E2323232E2E23232E2E2E38
S11311362E2E2E2E462E2E2E2E2E2E23232E2E2EC3
S11311462E2E2E2E2E2E2E2E2E2E2E23232E462EB3
S11311562E2E23462E232323232E2E23232E2E2EDA
S11311662E2E232E2E2E2E2E2E462E23232E2E23A9
S11311762E46232E2E2E2E2E2E2E2E23232E2E2399
S11311862E2E2323232E4623232E2E23232E462E92
S11311962E2E2E232E2E2E2E2E462E23232E2E2E6E
S11311A62E2E2E232E2E2E2E2E2E2E232323232397
S11311B62323232323232323232323230000010080
S10F11C60000FFFFFFFF0000010000001C
S9030000FC
