:100000000C942A000C9447000C9447000C94470071
:100010000C9447000C9447000C9447000C94470044
:100020000C9447000C9447000C9447000C94470034
:100030000C9447000C9447000C9447000C94470024
:100040000C9447000C9447000C9447000C94470014
:100050000C94470011241FBECFE5D8E0DEBFCDBF12
:1000600014E0A0E6B0E0E8EDFBE002C005900D92E0
:10007000AC37B107D9F727E0ACE7B4E001C01D9277
:10008000A830B207E1F70E947B050C94EA050C94B6
:1000900000008FEF8ABB8FEC84BB85B3806C85BB7F
:1000A000089587B3847F87BB0895BA9A089595B35E
:1000B000907F95BB95B38F70982B95BB0895AE98A4
:1000C0009BB3907F9BBB9BB38F70982B9BBB08957A
:1000D000AF989BB39F709BBB2BB330E1839FC00154
:1000E0001124822B8BBB089585B3806C85BB08954A
:1000F000A0E0B0E010C0FB01E80FF91F2081FA0179
:10010000E80FF91F2083019680319105A1F7119620
:10011000A031B10579F080E090E0AD0142955295B3
:10012000507F5427407F5427BA0164597F4F445869
:100130005B4FE1CF80916A0090916B004091680025
:1001400050916900FA0131969C0122953295307FD9
:100150003227207F322724573B4FD901AE0FBF1FD4
:1001600060E56C9382959295907F9827807F982781
:1001700084589B4FE80FF91F6083F901E40FF51FC6
:100180006083FC01E40FF51F60838091640090910F
:1001900065004091600050916100FA0131969C0128
:1001A00022953295307F3227207F322724573B4FCC
:1001B000D901AE0FBF1F61E36C9382959295907F3A
:1001C0009827807F982784589B4FE80FF91F6083FA
:1001D000F901E40FF51F6083FC01E40FF51F608354
:1001E0000895EF92FF920F931F93CF93DF93E12C2B
:1001F000F12C8E2D0E945700C0E0D0E087010295BF
:100200001295107F1027007F102704581B4FF8010C
:10021000EC0FFD1F80818E3209F44BC0F801EC0F0A
:10022000FD1F8081833221F48C2F0E945F003BC030
:10023000F801EC0FFD1F8081813321F48C2F0E9487
:10024000680031C0F801EC0FFD1F8081803539F462
:100250008C2F0E9468008C2F0E945F0024C0F80140
:10026000EC0FFD1F80818634F1F480917F05909121
:10027000800501968F779078992324F40197806800
:100280009F6F01969093800580937F0580917F05F5
:10029000909180058034910564F08C2F0E94680055
:1002A0008C2F0E945F0082E48A95F1F700C00E94C3
:1002B00074002196C031D10509F0A9CF8FEFE81A5B
:1002C000F80A80E1E816F10409F093CFDF91CF91AD
:1002D0001F910F91FF90EF900895CF92DF92EF92D0
:1002E000FF920F931F93CF93DF93EC0102967B0154
:1002F000E2E0EE0EF11C8A010E5F1F4F6901EFEF85
:10030000CE1ADE0A15C03196E017F10739F0EC1766
:10031000FD07C9F72A173B07B1F40CC01196EA167E
:10032000FB0611F0FA01F3CF21968C179D0729F0F7
:10033000DB01F8CF81E090E00AC080E090E007C0E8
:1003400081E090E004C0AC15BD05E9F6F9CFDF917E
:10035000CF911F910F91FF90EF90DF90CF90089574
:10036000CF92DF92EF92FF920F931F93CF93DF9381
:10037000A0916A00B0916B00880F991FFC01EC58A6
:10038000FB4FC081D181CA0FDB1F60916800709163
:100390006900FC01E459FB4FC080D180C60ED71E16
:1003A000FE01E295F295F07FFE27E07FFE27E459FB
:1003B000FF4FEC0DFD1D8081833209F4FBC08E01DF
:1003C0000F5F1F4FF801E295F295F07FFE27E07F67
:1003D000FE27E459FF4FEC0DFD1D8081833209F4A7
:1003E000E9C076018FEFE81AF80AFE01E295F2956E
:1003F000F07FFE27E07FFE27E459FF4FEE0DFF1D43
:100400008081833209F4D6C0F801E295F295F07F3D
:10041000FE27E07FFE27E459FF4FEE0DFF1D808190
:10042000833209F4C7C0209160003091610040918F
:10043000640050916500CD010E946D01892B39F057
:1004400081E090E090937E0580937D05B3C0D093CA
:100450006B00C0936A00D0926900C0926800FE01F0
:10046000E295F295F07FFE27E07FFE27E459FF4FEB
:10047000EC0DFD1D8081863451F1FE01E295F2956F
:10048000F07FFE27E07FFE27E459FF4FEE0DFF1DB2
:1004900080818634E1F0F801E295F295F07FFE2745
:1004A000E07FFE27E459FF4FEC0DFD1D808186346F
:1004B00071F0F801E295F295F07FFE27E07FFE27CC
:1004C000E459FF4FEE0DFF1D8081863459F485E01D
:1004D00090E0909385058093840510928705109293
:1004E000860506C081E090E090938705809386059D
:1004F000FE01E295F295F07FFE27E07FFE27E459AA
:10050000FF4FEC0DFD1D8081863469F4FE01E295FC
:10051000F295F07FFE27E07FFE27E459FF4FEC0DB8
:10052000FD1D8EE28083F801E295F295F07FFE27B3
:10053000E07FFE27E459FF4FEC0DFD1D80818634DE
:1005400071F4C80182959295907F9827807F9827B3
:1005500084599F4FFC01EC0DFD1D8EE28083FE014E
:10056000E295F295F07FFE27E07FFE27E459FF4FEA
:10057000EE0DFF1D8081863411F48EE28083F80138
:10058000E295F295F07FFE27E07FFE27E459FF4FCA
:10059000EE0DFF1D8081863469F402951295107F5F
:1005A0001027007F102704591F4FF801EE0DFF1D83
:1005B0008EE28083DF91CF911F910F91FF90EF909A
:1005C000DF90CF900895809184059091850518164D
:1005D000190614F4C29A01C0C298809184059091C2
:1005E0008505892B49F080918405909185050197B7
:1005F000909385058093840508959C01220F331FF5
:10060000F901EC59FF4F660F771FDB01AC58BB4F68
:100610000190F081E02D4D915C914E0F5F1FF9012B
:10062000E05AFF4FDB01A459BB4F0190F081E02D50
:100630002D913C912E0F3F1FFA01E295F295F07F2C
:10064000FE27E07FFE27E459FF4FE20FF31F608192
:10065000633209F44CC0BA016F5F7F4FFB01E29532
:10066000F295F07FFE27E07FFE27E459FF4FE20F6F
:10067000F31FE081E332D9F1D9011196FA01E29535
:10068000F295F07FFE27E07FFE27E459FF4FEA0F47
:10069000FB1FE081E33259F162957295707F7627F6
:1006A000607F762764597F4FA60FB71F6C91633226
:1006B000F1F0880F991FFC01EC59FF4F51834083E3
:1006C000FC01E05AFF4F31832083609168007091F4
:1006D000690080916A0090916B000E946D01892BE6
:1006E00031F081E090E090937E0580937D05089540
:1006F0002F923F924F925F926F927F928F929F9232
:10070000AF92BF92CF92DF92EF92FF920F931F931F
:10071000CF93DF931C01E8E8F5E048E856E02FEFBF
:1007200008C02193E817F907E1F7FC0148175907BA
:1007300019F0CF014096F5CF20916A0030916B00FF
:10074000809168009091690022953295307F322720
:10075000207F3227F901E857FA4FE80FF91F10827E
:1007600010927C0591E090938305822B80938806FC
:1007700044244394E0E00CE714E0552453945E0EC7
:10078000F0E0E857F94F4081642F70E07595679568
:100790007595679575956795759567954F7050E058
:1007A0000F2EF4E7AF2EF4E0BF2EF02D0F2EFCE657
:1007B000CF2EF4E0DF2EF02DD601F501CB0182958E
:1007C0009295907F9827807F982788579A4F3C0171
:1007D000640E751E21913191260F371F8D919D91C9
:1007E000840F951FE901C295D295D07FDC27C07F89
:1007F000DC27C857DA4FC80FD91FC881CF3F09F08F
:100800005CC0E901C295D295D07FDC27C07FDC2790
:10081000C459DF4FC80FD91FC881C33209F44DC076
:100820007901CFEFEC1AFC0AE701C295D295D07F8F
:10083000DC27C07FDC27C459DF4FC80FD91FC88110
:10084000C332D9F14C01DFEF8D1A9D0AE901C2953F
:10085000D295D07FDC27C07FDC27C459DF4FC80D7D
:10086000D91DC881C33249F1E701C295D295D07F25
:10087000DC27C07FDC27C459DF4FC80DD91DC881D4
:10088000C332D9F07901EE0CFF1CEE0CFF1CEE0C0C
:10089000FF1CEE0CFF1C970128573A4F280F391FF9
:1008A000E30198819F5FE9019883242D30E0285768
:1008B000394F8E29E90188834394E017F10709F045
:1008C00089CFE52D541408F458CF409283055092F7
:1008D0007C05C101880F991FFC01EC59FF4FC081B5
:1008E000D181FC01E05AFF4F0081118140E050E0CE
:1008F00080E090E0EFEFF0E0D5012D913D915D01BA
:10090000D6016D917D916D012C0F3D1F2295329581
:10091000307F3227207F322728573A4F200F311F50
:10092000260F371FD9012C9130E02E173F071CF4FA
:10093000842F952FF9014F5F5F4F44305105E1F649
:10094000DF91CF911F910F91FF90EF90DF90CF90AB
:10095000BF90AF909F908F907F906F905F904F90DF
:100960003F902F900895EF92FF920F931F93CF9394
:10097000DF930F2EFCE6EF2EF1E0FF2EF02DD0E0FE
:100980008D2F0E9457008701C0E0F80181918F01EF
:100990008E3259F0833219F48C2F0E945F00F2E4FA
:1009A000FA95F1F700C00E947400CF5FC03169F77B
:1009B000DF5F80E1E80EF11CD03111F7DF91CF91BC
:1009C0001F910F91FF90EF900895EF92FF920F9378
:1009D0001F93CF93DF930F2EFCE6EF2EF3E0FF2E55
:1009E000F02DD0E08D2F0E9457008701C0E0F80164
:1009F00081918F018E3259F0833219F48C2F0E942D
:100A00005F00F2E4FA95F1F700C00E947400CF5F36
:100A1000C03169F7DF5F80E1E80EF11CD03111F7DA
:100A2000DF91CF911F910F91FF90EF900895EF927A
:100A3000FF920F931F93CF93DF930F2EFCE6EF2EC1
:100A4000F2E0FF2EF02DD0E08D2F0E94570087019D
:100A5000C0E0F80181918F018E3259F0833219F490
:100A60008C2F0E945F00F2E4FA95F1F700C00E941B
:100A70007400CF5FC03169F7DF5F80E1E80EF11CE1
:100A8000D03111F7DF91CF911F910F91FF90EF902F
:100A9000089560E070E01AC081E090E0AB014295FB
:100AA0005295507F5427407F542744595F4FFA0195
:100AB000E80FF91F20812634C1F00196803191059D
:100AC000B1F76F5F7F4F6031710591F0FB01E295E7
:100AD000F295F07FFE27E07FFE27E459FF4F8081EB
:100AE0008634D1F681E090E0089581E090E00895A9
:100AF00080E090E008950F931F93CF93DF9384B726
:100B0000806884BF84B7806884BF0E9449000E94C7
:100B100051000E945500C4E6D0E00E94B304219722
:100B2000E1F701E010E086B3837090E00E94B0012D
:100B30008091860590918705892B49F080E090E0AF
:100B40000E947803BC0180E090E00E94FD020E94B8
:100B50007800C4E1D0E00E94F1000E94E3022197F6
:100B6000D1F70E944905892B21F410938205009347
:100B7000810580917D0590917E05892B39F08091CA
:100B80007D0590917E05892B41F40FC080918105F0
:100B900090918205892B39F2F2CF0E94E504809171
:100BA0007D0590917E05892BC1F7809181059091FB
:100BB0008205892B41F00E94170580918105909153
:100BC0008205892BC1F780E090E0DF91CF911F91E2
:080BD0000F910895F894FFCF86
:100BD80005000D000D00010008000D00232323234C
:100BE800232323232323232323232323232E462E94
:100BF8002E2E2E2E2E2E2E2E2E2E2E23232E2E2E23
:100C08002E462E2E2E2E2E2E2E462E23232E2E23ED
:100C18002E2E23232323232E2E232323232E2E235A
:100C28002E2E2E2E2E2E232E2E2E2E23232E2E2308
:100C38002E462E2E2E2E232E462E2E2323462E23B0
:100C4800232323232E2E2323232E2E23232E2E2E1F
:100C58002E2E2E2E462E2E2E2E2E2E23232E2E2EAA
:100C68002E2E2E2E2E2E2E2E2E2E2E23232E462E9A
:100C78002E2E23462E232323232E2E23232E2E2EC1
:100C88002E2E232E2E2E2E2E2E462E23232E2E2390
:100C98002E46232E2E2E2E2E2E2E2E23232E2E2380
:100CA8002E2E2323232E4623232E2E23232E462E79
:100CB8002E2E2E232E2E2E2E2E462E23232E2E2E55
:100CC8002E2E2E232E2E2E2E2E2E2E23232323237E
:100CD8002323232323232323232323232E232323D1
:100CE800232E232323232E232323232E2E232E2E8A
:100CF800232E232E2E232E232E2E2E2E2E23232359
:100D0800232E232323232E232E2E2E2E2E232E2E48
:100D18002E2E232E2E232E232E2E2E2E2E232E2E17
:100D28002E2E232E2E232E232323232E2E2E2E2E1D
:100D38002E2E2E2E2E2E2E2E2E2E2E2E2E232323EC
:100D4800232E232323232E232323232E2E232E2E29
:100D5800232E232E2E232E232E2E2E2E2E232323F8
:100D6800232E232323232E232E2E2E2E2E232E2EE8
:100D78002E2E232E2E232E232E2E2E2E2E232E2EB7
:100D88002E2E232E2E232E232323232E2E2E2E2EBD
:100D98002E2E2E2E2E2E2E2E2E2E2E2E2E232E2E76
:100DA800232E232323232E232E2E232E2E232323C9
:100DB800232E232E2E232E23232E232E2E232E2E98
:100DC800232E232323232E232E23232E2E232E2E9E
:100DD800232E232E2E232E232E2E232E232323238E
:100DE8002323232323232323232323232E2E2E2E9F
:100DF8002E2E2E2E2E2E2E2E2E2E2E2E2E232E2E16
:100E0800232E232323232E232E2E232E2E232E2E52
:100E1800232E232E2E232E232E2E232E2E23232342
:100E2800232E232E2E232E232E2E232E2E2E232327
:100E38002E2E232E2E232E232E2E232E2E2E23230C
:100E48002E2E232323232E232323232E2E2E2E2E12
:100E58002E2E2E2E2E2E2E2E2E2E2E2E2E2E2E2EAA
:100E68002E2E2E2E2E2E2E2E2E2E2E2E2E232E2EA5
:100E7800232E2323232E232E2E2E232E2E232E2ED7
:100E8800232E2E232E2E23232E2E232E2E232E2EBC
:100E9800232E2E232E2E232E232E232E2E232323C2
:100EA800232E2E232E2E232E2E23232E2E232E2E9C
:100EB800232E2323232E232E2E2E232E2E2E2E2E8C
:100EC8002E2E2E2E2E2E2E2E2E2E2E2E2323232366
:100ED80023232323232323232323232323232323DA
:100EE8002323232323232323232323232E2E2E2E9E
:100EF8002E2E2E2E2E2E2E2E2E2E2E2E2323232E2B
:100F08002323232E232E232E2323232E232E2E2E5C
:100F1800232E232E2323232E232E2E2E232E232E41
:100F28002323232E232E232E2323232E232E232E47
:100F3800232E232E232E232E232E2E2E2323232E21
:100F4800232E232E232E232E2323232E2E2E2E2E06
:100F58002E2E2E2E2E2E2E2E2E2E2E2E2E2E2E2EA9
:100F68002E2E2E2E2E2E2E2E2E2E2E2E2323232EBA
:100F7800232E232E2323232E2323232E232E232EF7
:100F8800232E232E232E2E2E232E232E232E232EC6
:100F9800232E232E2323232E2323232E232E232ED7
:100FA800232E232E232E2E2E23232E2E2323232EB1
:100FB8002323232E2323232E232E232E2E2E2E2EA1
:100FC8002E2E2E2E2E2E2E2E2E2E2E2E2323232365
:100FD8002323232323232323232323230000010064
:0C0FE8000000FFFFFFFF00000100000000
:00000001FF
