S015000052656E646572446973706C61792E73726563D9
S11300000C942A000C9447000C9447000C9447006D
S11300100C9447000C9447000C9447000C94470040
S11300200C9447000C9447000C9447000C94470030
S11300300C9447000C9447000C9447000C94470020
S11300400C9447000C9447000C9447000C94470010
S11300500C94470011241FBECFE5D8E0DEBFCDBF0E
S113006011E0A0E6B0E0E4E0F3E002C005900D92F8
S1130070A636B107D9F722E0A6E6B1E001C01D9289
S1130080A836B207E1F70E944B010C9480010C944E
S1130090000085B3806C85BB08958FEF8ABB8FEC1D
S11300A084BB0E944900089595B3907F95BB95B396
S11300B08F70982B95BB0895AE989BB3907F9BBB94
S11300C09BB38F70982B9BBB0895AF989BB39F7085
S11300D09BBB2BB330E1839FC0011124822B8BBBCC
S11300E00895A0E0B0E010C0FB01E80FF91F2081E3
S11300F0FA01E80FF91F2083019680319105A1F7D9
S11301001196A031B10579F080E090E0AD014295FF
S11301105295507F5427407F5427BA016C597F4F22
S11301204A595E4FE1CF8091620090916300409103
S1130130600050916100FA0131969C01229532953C
S1130140307F3227207F32272A583E4FD901AE0F05
S1130150BF1F60E56C9382959295907F9827807F6E
S113016098278A599E4FE80FF91F6083F901E40F1D
S1130170F51F6083FC01E40FF51F608381E3809326
S11301804C0280933C0280934B0280933B0208957F
S1130190EF92FF920F931F93CF93DF93E12CF12CF7
S11301A08E2D0E945400C0E0D0E087010295129584
S11301B0107F1027007F10270A591E4FF801EC0FFB
S11301C0FD1F80818E3209F452C0F801EC0FFD1F2F
S11301D08081833221F48C2F0E945C0043C0F8019B
S11301E0EC0FFD1F8081813321F48C2F0E94650068
S11301F039C0F801EC0FFD1F8081803539F48C2F54
S11302000E9465008C2F0E945C002CC0F801EC0F4A
S1130210FD1F8081863431F58091660290916702DA
S1130220609164017091650101960E945801909358
S113023067028093660220916401309165014091C8
S1130240660250916702C90199230CF401969595B1
S11302508795481759075CF08C2F0E9465008C2FF6
S11302600E945C0080E58A95F1F70E94490021967E
S1130270C031D10509F0A2CF8FEFE81AF80A80E166
S1130280E816F10409F08CCFDF91CF911F910F9103
S1130290FF90EF90089584B7806884BF84B7806826
S11302A084BF0E944D000E9471000E94C800FBCFD1
S11302B097FB072E16F4009407D077FD09D00E940F
S11302C06C0107FC05D03EF4909581959F4F0895ED
S11302D0709561957F4F0895AA1BBB1B51E107C020
S11302E0AA1FBB1FA617B70710F0A61BB70B881FC2
S11302F0991F5A95A9F780959095BC01CD01089551
S1070300F894FFCF9B
S113030408000D002323232323232323232323232C
S113031423232323232E462E2E2E2E2E2E2E2E2E14
S11303242E2E2E23232E2E2E2E462E2E2E2E2E2EE3
S1130334462E2E23232E2E232E2E23232323232E15
S11303442E232323232E2E232E2E2E2E2E2E232E07
S11303542E2E2E23232E2E232E462E2E2E2E232EC9
S1130364462E2E2323462E23232323232E2E2323D8
S1130374232E2E23232E2E2E2E2E2E2E462E2E2E9E
S11303842E2E2E23232E2E2E2E2E2E2E2E2E2E2E9B
S11303942E2E2E23232E462E2E2E23462E23232387
S11303A4232E2E23232E2E2E2E2E232E2E2E2E2E91
S11303B42E462E23232E2E232E46232E2E2E2E2E51
S11303C42E2E2E23232E2E232E2E2323232E46237A
S11303D4232E2E23232E462E2E2E2E232E2E2E2E49
S11303E42E462E23232E2E2E2E2E2E232E2E2E2E2E
S11303F42E2E2E23232323232323232323232323A4
S1090404232323238000E2
S9030000FC
