:100000000C942A000C9447000C9447000C94470071
:100010000C9447000C9447000C9447000C94470044
:100020000C9447000C9447000C9447000C94470034
:100030000C9447000C9447000C9447000C94470024
:100040000C9447000C9447000C9447000C94470014
:100050000C94470011241FBECFE5D8E0DEBFCDBF12
:1000600014E0A0E6B0E0EEEEFDE002C005900D92D7
:10007000A038B107D9F727E0A0E8B4E001C01D928D
:10008000A231B207E1F70E94C0050C94F5060C946A
:100090000000FC010FB6F89460910E0770910F07F5
:1000A00080911007909111070FBE309721F0608367
:1000B000718382839383089585B3806C85BB089593
:1000C0008FEF8ABB8FEC84BB85B3806C85BB0895B2
:1000D00087B3847F87BB0895BA9A089595B3907FBC
:1000E00095BB95B38F70982B95BB0895AE989BB335
:1000F000907F9BBB9BB38F70982B9BBB0895AF9851
:100100009BB39F709BBB2BB330E1839FC001112435
:10011000822B8BBB0895A0E0B0E010C0FB01E80F7C
:10012000F91F2081FA01E80FF91F20830196803121
:100130009105A1F71196A031B10579F080E090E02A
:10014000AD0142955295507F5427407F5427BA0104
:1001500060597F4F40585B4FE1CF80916E00909186
:100160006F0040916C0050916D00FA0131969C0136
:1001700022953295307F3227207F322720573B4F00
:10018000D901AE0FBF1F60E56C9382959295907F69
:100190009827807F982780589B4FE80FF91F60832E
:1001A000F901E40FF51F6083FC01E40FF51F608384
:1001B00080916800909169004091640050916500C1
:1001C000FA0131969C0122953295307F3227207FAB
:1001D000322720573B4FD901AE0FBF1F61E36C930D
:1001E00082959295907F9827807F982780589B4F83
:1001F000E80FF91F6083F901E40FF51F6083FC012C
:10020000E40FF51F60830895EF92FF920F931F9301
:10021000CF93DF93E12CF12C8E2D0E946E00C0E075
:10022000D0E0870102951295107F1027007F1027DC
:1002300000581B4FF801EC0FFD1F80818E3209F42E
:100240004BC0F801EC0FFD1F8081833221F48C2F0D
:100250000E9476003BC0F801EC0FFD1F80818133C6
:1002600021F48C2F0E947F0031C0F801EC0FFD1F9C
:100270008081803539F48C2F0E947F008C2F0E9462
:10028000760024C0F801EC0FFD1F80818634F1F464
:10029000809184059091850501968F7790789923B8
:1002A00024F4019780689F6F019690938505809351
:1002B000840580918405909185058034910564F0D2
:1002C0008C2F0E947F008C2F0E94760082E48A95FA
:1002D000F1F700C00E945C002196C031D10509F001
:1002E000A9CF8FEFE81AF80A80E1E816F10409F0C7
:1002F00093CFDF91CF911F910F91FF90EF900895D1
:10030000CF92DF92EF92FF920F931F93CF93DF93E1
:10031000EC0102967B01E2E0EE0EF11C8A010E5F19
:100320001F4F6901EFEFCE1ADE0A15C03196E017B4
:10033000F10739F0EC17FD07C9F72A173B07B1F4AD
:100340000CC01196EA16FB0611F0FA01F3CF2196C4
:100350008C179D0729F0DB01F8CF81E090E00AC0FF
:1003600080E090E007C081E090E004C0AC15BD05DE
:10037000E9F6F9CFDF91CF911F910F91FF90EF90A8
:10038000DF90CF900895CF92DF92EF92FF920F937C
:100390001F93CF93DF93A0916E00B0916F00880FF1
:1003A000991FFC01E858FB4FC081D181CA0FDB1FA8
:1003B00060916C0070916D00FC01E059FB4FC080B2
:1003C000D180C60ED71EFE01E295F295F07FFE2782
:1003D000E07FFE27E059FF4FEC0DFD1D8081833249
:1003E00009F4FBC08E010F5F1F4FF801E295F295F3
:1003F000F07FFE27E07FFE27E059FF4FEC0DFD1D4B
:100400008081833209F4E9C076018FEFE81AF80A97
:10041000FE01E295F295F07FFE27E07FFE27E0598E
:10042000FF4FEE0DFF1D8081833209F4D6C0F80125
:10043000E295F295F07FFE27E07FFE27E059FF4F1F
:10044000EE0DFF1D8081833209F4C7C02091640046
:10045000309165004091680050916900CD010E9483
:100460008001892B39F081E090E09093830580939F
:100470008205B3C0D0936F00C0936E00D0926D0020
:10048000C0926C00FE01E295F295F07FFE27E07FBE
:10049000FE27E059FF4FEC0DFD1D8081863451F1A0
:1004A000FE01E295F295F07FFE27E07FFE27E059FE
:1004B000FF4FEE0DFF1D80818634E1F0F801E295DB
:1004C000F295F07FFE27E07FFE27E059FF4FEC0D0D
:1004D000FD1D8081863471F0F801E295F295F07F80
:1004E000FE27E07FFE27E059FF4FEE0DFF1D8081C4
:1004F000863459F485E090E090938B0580938A05CB
:1005000010928D0510928C0506C081E090E09093CA
:100510008D0580938C05FE01E295F295F07FFE2714
:10052000E07FFE27E059FF4FEC0DFD1D80818634F2
:1005300069F4FE01E295F295F07FFE27E07FFE2749
:10054000E059FF4FEC0DFD1D8EE28083F801E2952E
:10055000F295F07FFE27E07FFE27E059FF4FEC0D7C
:10056000FD1D8081863471F4C80182959295907F3B
:100570009827807F982780599F4FFC01EC0DFD1D27
:100580008EE28083FE01E295F295F07FFE27E07F08
:10059000FE27E059FF4FEE0DFF1D8081863411F4D8
:1005A0008EE28083F801E295F295F07FFE27E07FEE
:1005B000FE27E059FF4FEE0DFF1D8081863469F460
:1005C00002951295107F1027007F102700591F4FAA
:1005D000F801EE0DFF1D8EE28083DF91CF911F9118
:1005E0000F91FF90EF90DF90CF90089580918A0552
:1005F00090918B051816190614F4C29A01C0C2987E
:1006000080918A0590918B05892B49F080918A050C
:1006100090918B05019790938B0580938A0508959F
:100620009C01220F331FF901E859FF4F660F771F16
:10063000DB01A858BB4F0190F081E02D4D915C91FA
:100640004E0F5F1FF901EC59FF4FDB01A059BB4F63
:100650000190F081E02D2D913C912E0F3F1FFA016A
:10066000E295F295F07FFE27E07FFE27E059FF4FED
:10067000E20FF31F6081633209F44CC0BA016F5F6F
:100680007F4FFB01E295F295F07FFE27E07FFE278A
:10069000E059FF4FE20FF31FE081E332D9F1D901B6
:1006A0001196FA01E295F295F07FFE27E07FFE2792
:1006B000E059FF4FEA0FFB1FE081E33259F16295E9
:1006C0007295707F7627607F762760597F4FA60FDF
:1006D000B71F6C916332F1F0880F991FFC01E85944
:1006E000FF4F51834083FC01EC59FF4F318320833E
:1006F00060916C0070916D0080916E0090916F0020
:100700000E948001892B31F081E090E09093830575
:100710008093820508952F923F924F925F926F923D
:100720007F928F929F92AF92BF92CF92DF92EF9281
:10073000FF920F931F93CF93DF93CDB7DEB72B9725
:100740000FB6F894DEBF0FBECDBF9E838D83EEE85B
:10075000F5E04EE856E02FEF08C02193E817F907BF
:10076000E1F7FC014817590719F0CF014096F5CF82
:1007700020916E0030916F0080916C0090916D001F
:1007800022953295307F3227207F3227F901E257B8
:10079000FA4FE80FF91F1082109281051092800520
:1007A00041E050E05093890540938805822B809367
:1007B0008E060F2EFEE88F2EF6E09F2EF02D2224BF
:1007C0002394312C81E090E09C012E583640390171
:1007D0000F2EF0E8AF2EF4E0BF2EF02D2301480CD1
:1007E000591CD4018D914D01082F10E015950795E6
:1007F0001595079515950795159507958F70E82E12
:10080000F12CE8E7F4E0FA83E98320E734E03C8365
:100810002B83C80182959295907F9827807F982797
:1008200082579A4F6C01CE0CDF1C3B872A8721919F
:100830003191200F311FAA85BB858D919D91BB877A
:10084000AA878E0D9F1DB90162957295707F7627DC
:10085000607F762762577A4F680F791FDB014C91D2
:100860004F3F09F05CC0B90162957295707F7627A1
:10087000607F762760597F4F680F791FDB014C91AD
:10088000433209F44CC0A9014F5F5F4FDA01A295D2
:10089000B295B07FBA27A07FBA27A059BF4FBD013C
:1008A000680F791FDB016C916332C9F1BC016F5F86
:1008B0007F4FD901A295B295B07FBA27A07FBA2702
:1008C000A059BF4FA60FB71FBC91B33241F142955B
:1008D0005295507F5427407F542740595F4F460F11
:1008E000571FDA014C914332D1F022953295307F77
:1008F0003227207F3227B90162577A4F680F791F5C
:10090000D6019C919F5FDB019C93B1016257794FA7
:10091000822BDB018C9391012F5F3F4F1901EA1568
:10092000FB0509F084CF421453040CF457CF3092E6
:1009300089052092880550928105409280058D811D
:100940009E81880F991FFC01E859FF4F408151811A
:100950005E834D83FC01EC59FF4FA081B18140E0E3
:1009600050E080E090E06FEF70E009811A81EB8049
:10097000FC80CD80DE805D01D8012D913D918D01FF
:10098000D701ED91FD917D012C0D3D1D22953295F4
:10099000307F3227207F322722573A4F2A0D3B1DC6
:1009A000E20FF31F208130E0261737071CF4842F55
:1009B000952FB9014F5F5F4F44305105E9F62B96F3
:1009C0000FB6F894DEBF0FBECDBFDF91CF911F9160
:1009D0000F91FF90EF90DF90CF90BF90AF909F90DE
:1009E0008F907F906F905F904F903F902F900895E1
:1009F000EF92FF920F931F93CF93DF930F2EF0E7A9
:100A0000EF2EF1E0FF2EF02DD0E08D2F0E946E0032
:100A10008701C0E0F80181918F018E3259F0833255
:100A200019F48C2F0E947600F2E4FA95F1F700C0D9
:100A30000E945C00CF5FC03169F7DF5F80E1E80EA4
:100A4000F11CD03111F7DF91CF911F910F91FF90E1
:100A5000EF900895EF92FF920F931F93CF93DF9340
:100A60000F2EF0E7EF2EF3E0FF2EF02DD0E08D2FCC
:100A70000E946E008701C0E0F80181918F018E32E3
:100A800059F0833219F48C2F0E947600F2E4FA9523
:100A9000F1F700C00E945C00CF5FC03169F7DF5FF3
:100AA00080E1E80EF11CD03111F7DF91CF911F9159
:100AB0000F91FF90EF900895EF92FF920F931F9385
:100AC000CF93DF930F2EF0E7EF2EF2E0FF2EF02D05
:100AD000D0E08D2F0E946E008701C0E0F801819167
:100AE0008F018E3259F0833219F48C2F0E947600D8
:100AF000F2E4FA95F1F700C00E945C00CF5FC031CC
:100B000069F7DF5F80E1E80EF11CD03111F7DF916A
:100B1000CF911F910F91FF90EF90089560E070E0EA
:100B20001AC081E090E0AB0142955295507F542766
:100B3000407F542740595F4FFA01E80FF91F208189
:100B40002634C1F0019680319105B1F76F5F7F4F78
:100B50006031710591F0FB01E295F295F07FFE277F
:100B6000E07FFE27E059FF4F80818634D1F681E097
:100B700090E0089581E090E0089580E090E008958D
:100B80000F931F93CF93DF9384B7806884BF84B79C
:100B9000806884BF0E9460000E9468000E946C0010
:100BA00080E090E00E944900CB010E948706C4E6E5
:100BB000D0E00E94F8042197E1F701E010E086B34D
:100BC000837090E00E94C30180918C0590918D0507
:100BD000892B49F080E090E00E948B03BC0180E00B
:100BE00090E00E9410030E948B00C4E1D0E00E94BC
:100BF00004010E94F6022197D1F70E948E05892BED
:100C000021F41093870500938605809182059091C9
:100C10008305892B39F08091820590918305892B7A
:100C200041F40FC08091860590918705892B39F298
:100C3000F2CF0E942A058091820590918305892B2D
:100C4000C1F78091860590918705892B41F00E941C
:100C50005C058091860590918705892BC1F780E01E
:100C600090E0DF91CF911F910F9108958F929F9205
:100C7000AF92BF92CF92DF92EF92FF92CF93DF932A
:100C8000EC01688179818A819B81611571058105FB
:100C9000910521F464E279ED8BE597E02DE133EFE6
:100CA00041E050E00E94920649015A019B01AC01CB
:100CB000A7EAB1E40E94B1066B017C01ACEEB4EF8F
:100CC000A50194010E94BF06DC01CB018C0D9D1D86
:100CD000AE1DBF1DB7FF03C00197A109B0488883AF
:100CE0009983AA83BB839F77DF91CF91FF90EF9089
:100CF000DF90CF90BF90AF909F908F9008950E940B
:100D00003606089580E690E00E9436060895A0E039
:100D1000B0E08093600090936100A0936200B09374
:100D200063000895052E97FB1EF400940E94A90607
:100D300057FD07D00E94C40607FC03D04EF40C9464
:100D4000A90650954095309521953F4F4F4F5F4FE5
:100D5000089590958095709561957F4F8F4F9F4F27
:100D600008950E94E606A59F900DB49F900DA49F44
:100D7000800D911D11240895B7FF0C94B1060E94B7
:100D8000B106821B930B0895A1E21A2EAA1BBB1B6E
:100D9000FD010DC0AA1FBB1FEE1FFF1FA217B30747
:100DA000E407F50720F0A21BB30BE40BF50B661F5D
:100DB000771F881F991F1A9469F760957095809521
:100DC00090959B01AC01BD01CF010895A29FB00198
:100DD000B39FC001A39F700D811D1124911DB29F6F
:0E0DE000700D811D1124911D0895F894FFCF10
:100DEE000100000005000D000D00010008000D00BF
:100DFE0023232323232323232323232323232323B5
:100E0E00232E462E2E2E2E2E2E2E2E2E2E2E2E23F2
:100E1E00232E2E2E2E462E2E2E2E2E2E2E462E23CA
:100E2E00232E2E232E2E23232323232E2E23232342
:100E3E00232E2E232E2E2E2E2E2E232E2E2E2E23F0
:100E4E00232E2E232E462E2E2E2E232E462E2E23B0
:100E5E0023462E23232323232E2E2323232E2E23FA
:100E6E00232E2E2E2E2E2E2E462E2E2E2E2E2E2392
:100E7E00232E2E2E2E2E2E2E2E2E2E2E2E2E2E239A
:100E8E00232E462E2E2E23462E232323232E2E2391
:100E9E00232E2E2E2E2E232E2E2E2E2E2E462E236D
:100EAE00232E2E232E46232E2E2E2E2E2E2E2E2368
:100EBE00232E2E232E2E2323232E4623232E2E2384
:100ECE00232E462E2E2E2E232E2E2E2E2E462E2325
:100EDE00232E2E2E2E2E2E232E2E2E2E2E2E2E2345
:100EEE0023232323232323232323232323232323C4
:100EFE002E232323232E232323232E232323232E88
:100F0E002E232E2E232E232E2E232E232E2E2E2E2A
:100F1E002E232323232E232323232E232E2E2E2E46
:100F2E002E232E2E2E2E232E2E232E232E2E2E2EFF
:100F3E002E232E2E2E2E232E2E232E232323232E10
:100F4E002E2E2E2E2E2E2E2E2E2E2E2E2E2E2E2EB3
:100F5E002E232323232E232323232E232323232E27
:100F6E002E232E2E232E232E2E232E232E2E2E2ECA
:100F7E002E232323232E232323232E232E2E2E2EE6
:100F8E002E232E2E2E2E232E2E232E232E2E2E2E9F
:100F9E002E232E2E2E2E232E2E232E232323232EB0
:100FAE002E2E2E2E2E2E2E2E2E2E2E2E2E2E2E2E53
:100FBE002E232E2E232E232323232E232E2E232E9B
:100FCE002E232323232E232E2E232E23232E232E96
:100FDE002E232E2E232E232323232E232E23232E86
:100FEE002E232E2E232E232E2E232E232E2E232E55
:100FFE0023232323232323232323232323232323B3
:10100E002E2E2E2E2E2E2E2E2E2E2E2E2E2E2E2EF2
:10101E002E232E2E232E232323232E232E2E232E3A
:10102E002E232E2E232E232E2E232E232E2E232E14
:10103E002E232323232E232E2E232E232E2E232E1A
:10104E002E2E23232E2E232E2E232E232E2E232EF4
:10105E002E2E23232E2E232323232E232323232E10
:10106E002E2E2E2E2E2E2E2E2E2E2E2E2E2E2E2E92
:10107E002E2E2E2E2E2E2E2E2E2E2E2E2E2E2E2E82
:10108E002E232E2E232E2323232E232E2E2E232EBF
:10109E002E232E2E232E2E232E2E23232E2E232EA4
:1010AE002E232E2E232E2E232E2E232E232E232E94
:1010BE002E232323232E2E232E2E232E2E23232E9A
:1010CE002E232E2E232E2323232E232E2E2E232E7F
:1010DE002E2E2E2E2E2E2E2E2E2E2E2E2E2E2E2E22
:1010EE0023232323232323232323232323232323C2
:1010FE0023232323232323232323232323232323B2
:10110E002E2E2E2E2E2E2E2E2E2E2E2E2E2E2E2EF1
:10111E002323232E2323232E232E232E2323232E5A
:10112E00232E2E2E232E232E2323232E232E2E2E1E
:10113E00232E232E2323232E232E232E2323232E2F
:10114E00232E232E232E232E232E232E232E2E2EFE
:10115E002323232E232E232E232E232E2323232E0F
:10116E002E2E2E2E2E2E2E2E2E2E2E2E2E2E2E2E91
:10117E002E2E2E2E2E2E2E2E2E2E2E2E2E2E2E2E81
:10118E002323232E232E232E2323232E2323232EEA
:10119E00232E232E232E232E232E2E2E232E232EAE
:1011AE00232E232E232E232E2323232E2323232EBF
:1011BE00232E232E232E232E232E2E2E23232E2E8E
:1011CE002323232E2323232E2323232E232E232EAA
:1011DE002E2E2E2E2E2E2E2E2E2E2E2E2E2E2E2E21
:1011EE0023232323232323232323232323232323C1
:1011FE00000001000000FFFFFFFF000001000000E3
:00000001FF
