S015000052656E646572446973706C61792E73726563D9
S11300000C942A000C9447000C9447000C9447006D
S11300100C9447000C9447000C9447000C94470040
S11300200C9447000C9447000C9447000C94470030
S11300300C9447000C9447000C9447000C94470020
S11300400C9447000C9447000C9447000C94470010
S11300500C94470011241FBECFE5D8E0DEBFCDBF0E
S113006011E0A0E6B0E0E2EEF5E002C005900D92EA
S1130070A437B107D9F722E0A4E7B1E001C01D928B
S1130080AA37B207E1F70E94D3020C94EF020C9452
S1130090000085B3806C85BB08958FEF8ABB8FEC1D
S11300A084BB85B3806C85BB089587B38C7F87BB85
S11300B00895BA9A089595B3907F95BB95B38F70C0
S11300C0982B95BB0895AE989BB3907F9BBB9BB335
S11300D08F70982B9BBB0895AF989BB39F709BBB6D
S11300E02BB330E1839FC0011124822B8BBB089575
S11300F0A0E0B0E010C0FB01E80FF91F2081FA0175
S1130100E80FF91F2083019680319105A1F711961C
S1130110A031B10579F080E090E0AD0142955295AF
S1130120507F5427407F5427BA016C597F4F4C5855
S11301305E4FE1CF80916200909163004091600036
S113014050916100FA0131969C0122953295307FDD
S11301503227207F32272C573E4FD901AE0FBF1FC5
S113016060E56C9382959295907F9827807F98277D
S11301708C589E4FE80FF91F6083F901E40FF51FB7
S11301806083FC01E40FF51F608381E380935A02CE
S113019080934A0280935902809349020895EF9212
S11301A0FF920F931F93CF93DF93809174029091EA
S11301B07502892B09F06FC0E12CF12C8E2D0E9461
S11301C05B00C0E0D0E0870102951295107F1027F4
S11301D0007F10270C581E4FF801EC0FFD1F808183
S11301E08E3209F44BC0F801EC0FFD1F808183327D
S11301F021F48C2F0E9463003BC0F801EC0FFD1F1B
S11302008081813321F48C2F0E946C0031C0F8016D
S1130210EC0FFD1F8081803539F48C2F0E946C0017
S11302208C2F0E94630024C0F801EC0FFD1F808115
S11302308634F1F4809176029091770201968F775B
S11302409078992324F4019780689F6F0196909386
S113025077028093760280917602909177028034BF
S1130260910564F08C2F0E946C008C2F0E94630017
S113027082E48A95F1F700C00E9449002196C031BA
S1130280D10509F0A9CF8FEFE81AF80A80E1E81642
S1130290F10409F093CFDF91CF911F910F91FF905B
S11302A0EF900895CF92DF92EF92FF920F931F93F6
S11302B0CF93DF93EC0102967B01E2E0EE0EF11C9A
S11302C08A010E5F1F4F6901EFEFCE1ADE0A15C0D7
S11302D03196E017F10739F0EC17FD07C9F72A1733
S11302E03B07B1F40CC01196EA16FB0611F0FA01B3
S11302F0F3CF21968C179D0729F0DB01F8CF81E01D
S113030090E00AC080E090E007C081E090E004C083
S1130310AC15BD05E9F6F9CFDF91CF911F910F918F
S1130320FF90EF90DF90CF900895CF92DF92EF92FD
S1130330FF920F931F93CF93DF93A0916200B0912C
S11303406300880F991FFC01E459FE4FC081D181DD
S1130350CA0FDB1F6091600070916100FC01EC59D1
S1130360FE4FC080D180C60ED71EFE01E295F295E5
S1130370F07FFE27E07FFE27EC59FF4FEC0DFD1DBB
S11303808081833209F4ECC08E010F5F1F4FF801A6
S1130390E295F295F07FFE27E07FFE27EC59FF4FB0
S11303A0EC0DFD1D8081833209F4DAC076018FEFF4
S11303B0E81AF80AFE01E295F295F07FFE27E07F45
S11303C0FE27EC59FF4FEE0DFF1D8081833209F4A7
S11303D0C7C0F801E295F295F07FFE27E07FFE2783
S11303E0EC59FF4FEE0DFF1D8081833209F4B8C034
S11303F025E030E04DE050E0CD010E945201892B10
S113040039F081E090E09093750280937402A8C063
S1130410D0936300C0936200D0926100C0926000E8
S1130420FE01E295F295F07FFE27E07FFE27EC596E
S1130430FF4FEC0DFD1D8081863451F1FE01E295E4
S1130440F295F07FFE27E07FFE27EC59FF4FEE0D7B
S1130450FF1D80818634E1F0F801E295F295F07F8A
S1130460FE27E07FFE27EC59FF4FEC0DFD1D808138
S1130470863471F0F801E295F295F07FFE27E07F73
S1130480FE27EC59FF4FEE0DFF1D8081863431F4B9
S113049085E090E09093790280937802FE01E295E2
S11304A0F295F07FFE27E07FFE27EC59FF4FEC0D1D
S11304B0FD1D8081863469F4FE01E295F295F07F9A
S11304C0FE27E07FFE27EC59FF4FEC0DFD1D8EE269
S11304D08083F801E295F295F07FFE27E07FFE2706
S11304E0EC59FF4FEC0DFD1D8081863471F4C80179
S11304F082959295907F9827807F98278C599F4F5B
S1130500FC01EC0DFD1D8EE28083FE01E295F29567
S1130510F07FFE27E07FFE27EC59FF4FEE0DFF1D15
S11305208081863411F48EE28083F801E295F2959D
S1130530F07FFE27E07FFE27EC59FF4FEE0DFF1DF5
S11305408081863469F402951295107F1027007F0C
S113055010270C591F4FF801EE0DFF1D8EE280830A
S1130560DF91CF911F910F91FF90EF90DF90CF908B
S1130570089580917802909179021816190614F45E
S1130580C29A01C0C2988091780290917902892B15
S113059049F08091780290917902019790937902C1
S11305A080937802089584B7806884BF84B7806894
S11305B084BF0E944D000E9455000E94590086B3DA
S11305C0837090E00E9495010E947800CCE0D0E016
S11305D00E94CF000E94B9022197D1F7F0CFF8947E
S10505E0FFCF47
S11305E208000D002323232323232323232323234C
S11305F223232323232E462E2E2E2E2E2E2E2E2E34
S11306022E2E2E23232E2E2E2E462E2E2E2E2E2E02
S1130612462E2E23232E2E232E2E23232323232E34
S11306222E232323232E2E232E2E2E2E2E2E232E26
S11306322E2E2E23232E2E232E462E2E2E2E232EE8
S1130642462E2E2323462E23232323232E2E2323F7
S1130652232E2E23232E2E2E2E2E2E2E462E2E2EBD
S11306622E2E2E23232E2E2E2E2E2E2E2E2E2E2EBA
S11306722E2E2E23232E462E2E2E23462E232323A6
S1130682232E2E23232E2E2E2E2E232E2E2E2E2EB0
S11306922E462E23232E2E232E46232E2E2E2E2E70
S11306A22E2E2E23232E2E232E2E2323232E462399
S11306B2232E2E23232E462E2E2E2E232E2E2E2E68
S11306C22E462E23232E2E2E2E2E2E232E2E2E2E4D
S11306D22E2E2E23232323232323232323232323C3
S11306E223232323000001000000FFFFFFFF00007B
S10706F201000000FF
S9030000FC
